:100000000C942A000C94D1000C94FC000C94470032
:100010000C9447000C9447000C9447000C94470044
:100020000C9447000C9447000C9447000C948C03EC
:100030000C9447000C9447000C9447000C94470024
:100040000C9447000C9447000C9447000C94470014
:100050000C94470011241FBECFE5D4E0DEBFCDBF16
:1000600011E0ACE6B1E001C01D92AB37B107E1F79A
:1000700011E0A0E6B0E0E2E6F9E102C005900D92E1
:10008000AC36B107D9F70E94AD030C94AF0C0C94B9
:100090000000DF93CF93CDB7DEB7A7E3B0E0E7E38F
:1000A000F0E080818F608C93A8E3B0E0E8E3F0E0BB
:1000B0008081807F8C93A1E3B0E0E1E3F0E0808178
:1000C00080638C93A2E3B0E0E2E3F0E080818063A0
:1000D0008C93CF91DF910895DF93CF93CDB7DEB7A7
:1000E000A1E3B0E0E1E3F0E08081877F8C93A2E3BD
:1000F000B0E0E2E3F0E0808188608C93CF91DF9103
:100100000895DF93CF93CDB7DEB7A1E3B0E0E1E38D
:10011000F0E080818B7F8C93A2E3B0E0E2E3F0E03B
:10012000808184608C93CF91DF910895DF93CF938A
:10013000CDB7DEB70E9449000E946C000E9481008A
:10014000CF91DF910895DF93CF93CDB7DEB7F894C9
:10015000A5E5B0E0E5E5F0E0808188608C93ABE553
:10016000B0E0EBE5F0E0808180688C937894CF91EB
:10017000DF910895DF93CF93CDB7DEB7F894A5E56F
:10018000B0E0E5E5F0E0808182608C93ABE5B0E023
:10019000EBE5F0E0808180648C937894CF91DF91DF
:1001A00008951F920F920FB60F9211248F939F9371
:1001B000AF93BF93DF93CF93CDB7DEB7809170013C
:1001C00090917101A0917201B09173010196A11DEE
:1001D000B11D8093700190937101A0937201B0934F
:1001E0007301CF91DF91BF91AF919F918F910F904C
:1001F0000FBE0F901F9018951F920F920FB60F927F
:1002000011248F939F93AF93BF93DF93CF93CDB779
:10021000DEB780916C0190916D01A0916E01B0915B
:100220006F010196A11DB11D80936C0190936D012A
:10023000A0936E01B0936F01CF91DF91BF91AF9109
:100240009F918F910F900FBE0F901F901895DF9385
:10025000CF93CDB7DEB7EAE2F0E01082EBE2F0E058
:100260001082E0E4F0E086E88083E9E2F0E08FE2EB
:100270008083E0E4F0E01082EAE2F0E088E9808345
:10028000CF91DF910895DF93CF9300D0CDB7DEB744
:100290008A8319828A818F708A83E8E3F0E0808103
:1002A00089838981807F898399818A81892B898348
:1002B000E8E3F0E0898180830F900F90CF91DF9188
:1002C0000895DF93CF93CDB7DEB786E00E94430158
:1002D000CF91DF910895DF93CF93CDB7DEB789E05B
:1002E0000E944301CF91DF910895DF93CF93CDB763
:1002F000DEB785E00E944301CF91DF910895DF933F
:10030000CF93CDB7DEB78AE00E944301CF91DF9152
:100310000895DF93CF93CDB7DEB784E00E94430109
:10032000CF91DF910895DF93CF93CDB7DEB782E011
:100330000E944301CF91DF910895DF93CF93CDB712
:10034000DEB781E00E944301CF91DF910895DF93F2
:10035000CF93CDB7DEB788E00E944301CF91DF9104
:100360000895DF93CF93CDB7DEB780E00E944301BD
:10037000CF91DF910895DF93CF93CDB7DEB72C9760
:100380000FB6F894DEBF0FBECDBF9A87898780E095
:1003900090E0A0E0B0E08D839E83AF83B8871982A0
:1003A0001A821B821C8289859A85CC01A0E0B0E06C
:1003B000BC01CD010E942609DC01CB01BC01CD01AD
:1003C0002AE939E94DE451E40E94F607DC01CB014A
:1003D0008D839E83AF83B8876D817E818F81988561
:1003E0000E942006DC01CB01CC01A0E0B0E08983B3
:1003F0009A83AB83BC8310927001109271011092AA
:1004000072011092730110926C0110926D011092A2
:100410006E0110926F012091700130917101409135
:100420007201509173011C8689819A81AB81BC81D4
:10043000281739074A075B0710F081E08C87209165
:100440006C0130916D0140916E0150916F011B86DE
:1004500089819A81AB81BC81281739074A075B07DC
:1004600010F091E09B878C859B85892B882399F2DE
:100470000E94B1012C960FB6F894DEBF0FBECDBF1F
:10048000CF91DF910895DF93CF93CDB7DEB72A9751
:100490000FB6F894DEBF0FBECDBF9A87898780E084
:1004A00090E0A0E0B0E08D839E83AF83B88719828F
:1004B0001A821B821C8289859A85CC01A0E0B0E05B
:1004C000BC01CD010E942609DC01CB01BC01CD019C
:1004D00022E538EB4EE451E40E94F607DC01CB0143
:1004E0008D839E83AF83B8876D817E818F81988550
:1004F0000E942006DC01CB0189839A83AB83BC83F5
:100500001092700110927101109272011092730199
:1005100020917001309171014091720150917301ED
:1005200089819A81AB81BC8182179307A407B507A3
:1005300078F70E94B1012A960FB6F894DEBF0FBE7D
:10054000CDBFCF91DF910895DF93CF9300D0CDB78A
:10055000DEB79A8389830E94610189819A810E9412
:1005600043020F900F90CF91DF910895DF93CF93C7
:1005700000D0CDB7DEB79A8389830E946B01898151
:100580009A810E9443020F900F90CF91DF910895BE
:10059000DF93CF9300D0CDB7DEB79A8389830E94D3
:1005A000750189819A810E9443020F900F90CF912B
:1005B000DF910895DF93CF9300D0CDB7DEB79A8354
:1005C00089830E947F0189819A810E9443020F9052
:1005D0000F90CF91DF910895DF93CF9300D0CDB7E7
:1005E000DEB79A8389830E94750189819A810E946E
:1005F000BB010F900F90CF91DF910895DF93CF93C0
:1006000000D0CDB7DEB79A8389830E947F018981AC
:100610009A810E94BB010F900F90CF91DF910895B6
:10062000DF93CF9300D0CDB7DEB79A8389830E9442
:10063000890189819A81880F991F9A838983898189
:100640009A810E94BB010F900F90CF91DF91089586
:10065000DF93CF9300D0CDB7DEB79A8389830E9412
:10066000930189819A81880F991F9A83898389814F
:100670009A810E94BB010F900F90CF91DF91089556
:10068000DF93CF9300D0CDB7DEB79A8389830E94E2
:100690009D0189819A81880F991F9A838983898115
:1006A0009A810E94BB010F900F90CF91DF91089526
:1006B000DF93CF9300D0CDB7DEB79A8389830E94B2
:1006C000A70189819A81880F991F9A8389838981DB
:1006D0009A810E94BB010F900F90CF91DF910895F6
:1006E000DF93CF93CDB7DEB7F8940E9496000E94B7
:1006F00027010E94A3000E94BA007894CF91DF9155
:100700000895DF93CF93CDB7DEB7EAE2F0E088E05B
:100710008083CF91DF9108951F920F920FB60F92B1
:1007200011248F93EF93FF93DF93CF93CDB7DEB771
:10073000ECE2F0E0808180937401ECE2F0E08091E3
:1007400074018F5F8083CF91DF91FF91EF918F9143
:100750000F900FBE0F901F901895DF93CF9300D08E
:10076000CDB7DEB70E947003809174018C3621F002
:1007700080917401823759F40E9481038091740141
:100780008093750180E3809374010E94270180911A
:1007900074018636F9F40E94810380E3809374012A
:1007A0000E94E50B25E030E0B9010E94F50B0596AB
:1007B0009A83898329813A8184E690E0AC01249F61
:1007C000C001259F900D349F900D11240E94A4021A
:1007D0000E94270180917401813621F0809174017B
:1007E000823699F480917401803379F0809175019B
:1007F0008C3659F40E9481038091740180937601B4
:1008000080E3809374010E942701809174018136F6
:1008100021F080917401823699F4809174018033C3
:1008200079F080917501823759F40E94810380919B
:1008300074018093760180E3809374010E94270104
:1008400080917401813609F4B1C0809174018033C4
:1008500009F4ACC080917601813609F0A7C080917F
:1008600075018C3609F0A2C080917401893371F44E
:100870000E9481038AE590E00E94EC0280E380936D
:10088000740180E3809376010E94270180917401B6
:10089000883371F40E94810380E590E00E94EC02AD
:1008A00080E38093740180E3809376010E942701A6
:1008B00080917401873371F40E94810386E490E093
:1008C0000E94EC0280E38093740180E380937601C0
:1008D0000E94270180917401863371F40E94810384
:1008E0008CE390E00E94EC0280E38093740180E34B
:1008F000809376010E94270180917401853371F401
:100900000E94810382E390E00E94EC0280E38093E6
:10091000740180E3809376010E9427018091740125
:10092000843371F40E94810388E290E00E94EC021B
:1009300080E38093740180E3809376010E94270115
:1009400080917401833371F40E9481038EE190E001
:100950000E94EC0280E38093740180E3809376012F
:100960000E94270180917401823371F40E948103F7
:1009700084E190E00E94EC0280E38093740180E3C4
:10098000809376010E94270180917401813371F474
:100990000E9481038DE090E00E94EC0280E380934E
:1009A000740180E3809376010E9427018091740195
:1009B000823609F443C080917401803309F43EC04B
:1009C000809176018236D1F5809175018C36B1F532
:1009D00080917401813371F40E94810384E690E078
:1009E0000E94EC0280E38093740180E3809376019F
:1009F0000E94270180917401823371F40E94810367
:100A000088EC90E00E94EC0280E38093740180E324
:100A1000809376010E94270180917401833371F4E1
:100A20000E9481038CE291E00E94EC0280E38093BB
:100A3000740180E3809376010E9427018091740104
:100A4000813609F4B1C080917401803309F4ACC0DF
:100A500080917601813609F0A7C0809175018237B7
:100A600009F0A2C080917401893371F40E9481035E
:100A70008AE590E00E94FE0280E38093740180E3A7
:100A8000809376010E94270180917401883371F46C
:100A90000E94810380E590E00E94FE0280E3809343
:100AA000740180E3809376010E9427018091740194
:100AB000873371F40E94810386E490E00E94FE0275
:100AC00080E38093740180E3809376010E94270184
:100AD00080917401863371F40E9481038CE390E06D
:100AE0000E94FE0280E38093740180E3809376018C
:100AF0000E94270180917401853371F40E94810363
:100B000082E390E00E94FE0280E38093740180E320
:100B1000809376010E94270180917401843371F4DF
:100B20000E94810388E290E00E94FE0280E38093AD
:100B3000740180E3809376010E9427018091740103
:100B4000833371F40E9481038EE190E00E94FE02E3
:100B500080E38093740180E3809376010E942701F3
:100B600080917401823371F40E94810384E190E0EA
:100B70000E94FE0280E38093740180E380937601FB
:100B80000E94270180917401813371F40E948103D6
:100B90008DE090E00E94FE0280E38093740180E388
:100BA000809376010E94270180917401823609F4B6
:100BB000DBCD80917401803309F4D6CD809176012C
:100BC000823609F0D1CD80917501823709F0CCCD04
:100BD00080917401813371F40E94810384E690E076
:100BE0000E94FE0280E38093740180E3809376018B
:100BF0000E94270180917401823371F40E94810365
:100C000088EC90E00E94FE0280E38093740180E310
:100C1000809376010E94270180917401833309F04B
:100C2000A3CD0E9481038CE291E00E94FE0280E34A
:100C30008093740180E3809376010E94270194CD14
:100C4000EF92FF920F931F937B018C0120E030E025
:100C500040E05FE40E94A20888238CF0C801B7013D
:100C600020E030E040E05FE40E9498070E94D20854
:100C70009B01AC01205030404040504806C0C801A4
:100C8000B7010E94D2089B01AC01B901CA011F91B2
:100C90000F91FF90EF900895A0E0B0E0E2E5F6E05C
:100CA0000C941C0CDC012B01FA019C91923008F48D
:100CB00039C1EB018881823008F433C1943069F482
:100CC000843009F02FC111969C9111978981981752
:100CD00009F428C1A0E6B0E025C1843009F421C19F
:100CE0008230A9F4923009F01DC19A01AD0188E06B
:100CF000EA010990AE01E90109929E018150C1F714
:100D0000E201898111969C918923818308C19230E7
:100D100009F407C112962D903C901397EB018A813C
:100D20009B811496AD90BD90CD90DC901797EC8090
:100D3000FD800E811F819101281B390BB90137FFFE
:100D400004C066277727621B730B603271050CF0B5
:100D500061C0121613066CF537014801062E04C057
:100D600096948794779467940A94D2F721E030E0C0
:100D700040E050E004C0220F331F441F551F6A9506
:100D8000D2F721503040404050402E213F21402397
:100D90005123211531054105510521F021E030E0B5
:100DA00040E050E079018A01E628F728082919294E
:100DB0003CC0232BD1F1260E371E35014601062EED
:100DC00004C096948794779467940A94D2F721E0AC
:100DD00030E040E050E004C0220F331F441F551F95
:100DE0006A95D2F721503040404050402A213B21A3
:100DF0004C215D21211531054105510521F021E0EE
:100E000030E040E050E059016A01A628B728C82820
:100E1000D9280BC0821593052CF01C01AA24BB24F1
:100E2000650103C0EE24FF24870111969C91D20135
:100E300011968C91981709F445C0992339F0A801AF
:100E400097012A193B094C095D0906C0A6019501C5
:100E50002E193F09400B510B57FD08C011823382F8
:100E6000228224833583468357831DC081E081839A
:100E70003382228288279927DC01821B930BA40BE3
:100E8000B50B84839583A683B7830DC0220F331FD0
:100E9000441F551F24833583468357838281938162
:100EA0000197938382832481358146815781DA01BA
:100EB000C9010197A109B1098F5F9F4FAF4FBF4390
:100EC00028F30BC0918333822282EA0CFB1C0C1D99
:100ED0001D1DE482F5820683178383E080832481CD
:100EE00035814681578157FF1AC0C901AA2797FD4E
:100EF000A095BA2F81709070A070B07056954795EC
:100F000037952795822B932BA42BB52B8483958320
:100F1000A683B78382819381019693838283DF01C5
:100F200001C0D201CD01CDB7DEB7E2E10C94380C9F
:100F3000A0E2B0E0EEE9F7E00C94280C69837A8334
:100F40008B839C832D833E834F835887E9E0EE2E6D
:100F5000F12CEC0EFD1ECE010196B7010E94C30AD2
:100F60008E010F5E1F4FCE010596B8010E94C30A85
:100F70008A8991E089278A8BC701B801AE01475E53
:100F80005F4F0E944C060E94EE09A096E6E00C948A
:100F9000440CA0E2B0E0EFECF7E00C94280C69837D
:100FA0007A838B839C832D833E834F835887F9E01C
:100FB000EF2EF12CEC0EFD1ECE010196B7010E9422
:100FC000C30A8E010F5E1F4FCE010596B8010E9425
:100FD000C30AC701B801AE01475E5F4F0E944C06CD
:100FE0000E94EE09A096E6E00C94440CA8E1B0E063
:100FF000ECEFF7E00C94240C69837A838B839C8359
:101000002D833E834F835887B9E0EB2EF12CEC0EF5
:10101000FD1ECE010196B7010E94C30A8E010F5E2C
:101020001F4FCE010596B8010E94C30A29852230C0
:1010300008F47EC03989323010F4B8017CC08A854A
:101040009A8989278A87243011F0223031F42317B6
:1010500009F06EC060E670E06EC0343039F41D8671
:101060001E861F86188A1C861B8604C0323021F417
:1010700084E08987B7015FC02B853C858B899C897B
:10108000281B390B3C872B87ED84FE840F8518893C
:10109000AD88BE88CF88D88CEA14FB040C051D05EA
:1010A00040F4EE0CFF1C001F111F215030403C8704
:1010B0002B8720E030E040E050E080E090E0A0E0CE
:1010C000B0E460E070E0EA14FB040C051D0540F09C
:1010D000282B392B4A2B5B2BEA18FB080C091D091E
:1010E000B695A79597958795EE0CFF1C001F111FCD
:1010F0006F5F7F4F6F31710531F7DA01C9018F776B
:101100009070A070B07080349105A105B10561F4B4
:1011100027FD0AC0E114F1040105110529F0205C46
:101120003F4F4F4F5F4F20782D873E874F87588B1B
:10113000BE01675F7F4FCB010E94EE096896EAE02F
:101140000C94400CA8E1B0E0E8EAF8E00C94280C1C
:1011500069837A838B839C832D833E834F83588757
:1011600089E0E82EF12CEC0EFD1ECE010196B701B0
:101170000E94C30A8E010F5E1F4FCE010596B80173
:101180000E94C30A8985823040F08989823028F024
:10119000C701B8010E943B0B01C08FEF6896E6E0E3
:1011A0000C94440CACE0B0E0E8EDF8E00C942C0CAE
:1011B00069837A838B839C83CE010196BE016B5F2A
:1011C0007F4F0E94C30A8D81823061F1823050F1DD
:1011D000843021F48E81882351F12EC02F813885EF
:1011E00037FD20C06E812F3131051CF06623F9F0E8
:1011F00023C08EE190E0821B930B29853A854B85B5
:101200005C8504C056954795379527958A95D2F702
:101210006623B1F050954095309521953F4F4F4F43
:101220005F4F0EC020E030E040E050E009C02FEFFB
:101230003FEF4FEF5FE704C020E030E040E050E8D0
:10124000B901CA012C96E2E00C94480CA8E0B0E089
:10125000ECE2F9E00C94240C7B018C016115710522
:101260008105910519F482E0898360C083E0898358
:101270008EE1C82ED12CDC82CB82ED82FE820F83E0
:101280001887C801B7010E949F09FC013197F7FF39
:101290003BC0222733272E1B3F0B57016801022E2C
:1012A00004C0D694C794B794A7940A94D2F740E0A8
:1012B00050E060E070E081E090E0A0E0B0E004C0C9
:1012C000880F991FAA1FBB1F2A95D2F70197A10962
:1012D000B1098E219F21A023B1230097A105B1055B
:1012E00021F041E050E060E070E04A295B296C2980
:1012F0007D294D835E836F8378878EE190E08E1B1E
:101300009F0B9C838B8312C0309781F00E2E04C0FC
:10131000EE0CFF1C001F111F0A94D2F7ED82FE8213
:101320000F831887CE1ADF0ADC82CB821A82CE01A5
:1013300001960E94EE092896EAE00C94400CEF9288
:10134000FF920F931F937B018C0180E0E81680E0F1
:10135000F80681E0080780E0180788F48FEFE816A8
:10136000F1040105110531F028F088E090E0A0E0DB
:10137000B0E017C080E090E0A0E0B0E012C080E0F4
:10138000E81680E0F80680E0080781E0180728F0FA
:1013900088E190E0A0E0B0E004C080E190E0A0E04F
:1013A000B0E020E230E040E050E0281B390B4A0B6F
:1013B0005B0B04C016950795F794E7948A95D2F7CE
:1013C000F701E859FF4F8081281B31094109510974
:1013D000C9011F910F91FF90EF900895DF92EF9256
:1013E000FF920F931F93FC01E480F5800681178123
:1013F000D1808081823048F480E090E0A0E1B0E0CC
:10140000E82AF92A0A2B1B2BA5C0843009F49FC0B7
:10141000823021F4EE24FF24870105C0E114F10499
:101420000105110519F4E0E0F0E096C062817381D6
:101430009FEF623879070CF05BC022E83FEF261B74
:10144000370B2A3131052CF020E030E040E050E04D
:101450002AC0B801A701022E04C07695679557955A
:1014600047950A94D2F781E090E0A0E0B0E004C094
:10147000880F991FAA1FBB1F2A95D2F70197A109B0
:10148000B1098E219F21A023B1230097A105B105A9
:1014900021F081E090E0A0E0B0E09A01AB01282BC0
:1014A000392B4A2B5B2BDA01C9018F779070A07022
:1014B000B07080349105A105B10539F427FF09C04A
:1014C000205C3F4F4F4F5F4F04C0215C3F4F4F4F59
:1014D0005F4FE0E0F0E02030A0E03A07A0E04A07EC
:1014E000A0E45A0710F0E1E0F0E079018A0127C09A
:1014F0006038710564F5FB01E158FF4FD801C70161
:101500008F779070A070B07080349105A105B105FF
:1015100039F4E7FE0DC080E490E0A0E0B0E004C044
:101520008FE390E0A0E0B0E0E80EF91E0A1F1B1F59
:1015300017FF05C016950795F794E794319687E055
:1015400016950795F794E7948A95D1F705C0EE2490
:10155000FF248701EFEFF0E06E2F67956627679510
:10156000902F9F77D794DD24D7948E2F8695492F7F
:10157000462B582F5D29B701CA011F910F91FF908B
:10158000EF90DF900895FC01DB01408151812281C1
:10159000622F6F7770E0221F2227221F9381892FED
:1015A000880F822B282F30E0991F9927991F1196B9
:1015B0009C93119721153105A9F541155105610538
:1015C000710511F482E037C082E89FEF13969C9377
:1015D0008E9312979A01AB0167E0220F331F441FCD
:1015E000551F6A95D1F783E08C930DC0220F331FEE
:1015F000441F551F12968D919C9113970197139636
:101600009C938E931297203080E0380780E0480743
:1016100080E4580758F314962D933D934D935C93B3
:10162000179708952F3F310579F44115510561054C
:10163000710519F484E08C93089564FF03C081E080
:101640008C9312C01C9210C02F57304013963C93BD
:101650002E93129783E08C9387E0440F551F661FEB
:10166000771F8A95D1F7706414964D935D936D93AF
:101670007C93179708951F93DC01FB019C91923096
:1016800008F447C08081823008F443C0943051F49C
:1016900011961C91843099F58181682F70E0611B4F
:1016A00071093FC0843021F0923031F48230B9F1B9
:1016B0008181882389F12DC011961C911197823068
:1016C000F1F081811817D9F412962D913C9113975E
:1016D000828193818217930794F028173907BCF011
:1016E00014968D919D910D90BC91A02D24813581F2
:1016F00046815781281739074A075B0718F41123D9
:1017000041F00AC082179307A407B50740F41123DC
:1017100019F061E070E005C06FEF7FEF02C060E09C
:1017200070E0CB011F910895A0E0B0E0EAE9FBE092
:101730000C94240CEC01A880B980CA80DB80A11431
:10174000B104C104D10441F484E2A82E89EDB82E7D
:101750008BE5C82E87E0D82EC601B5012DE133EF09
:1017600041E050E00E94720C27EA31E440E050E092
:101770000E94530C7B018C01C601B5012DE133EFB2
:1017800041E050E00E94720CCA01B9012CEE34EF26
:101790004FEF5FEF0E94530C6E0D7F1D801F911F56
:1017A00097FF04C0615070408040904868837983FF
:1017B0008A839B839B013F77C901CDB7DEB7EAE0FF
:1017C0000C94400C0E94940B089588E691E00E94CE
:1017D000940B0895A0E0B0E08093680190936901B4
:1017E000A0936A01B0936B01089597FB092E072619
:1017F0000AD077FD04D00CD006D000201AF47095E2
:1018000061957F4F0895F6F7909581959F4F0895C4
:10181000AA1BBB1B51E107C0AA1FBB1FA617B70716
:1018200010F0A61BB70B881F991F5A95A9F7809532
:101830009095BC01CD0108952F923F924F925F92F7
:101840006F927F928F929F92AF92BF92CF92DF92D0
:10185000EF92FF920F931F93CF93DF93CDB7DEB735
:10186000CA1BDB0B0FB6F894DEBF0FBECDBF0994C9
:101870002A88398848885F846E847D848C849B8420
:10188000AA84B984C884DF80EE80FD800C811B812E
:10189000AA81B981CE0FD11D0FB6F894DEBF0FBE5D
:1018A000CDBFED010895629FD001739FF001829F2B
:1018B000E00DF11D649FE00DF11D929FF00D839FDF
:1018C000F00D749FF00D659FF00D9927729FB00D7C
:1018D000E11DF91F639FB00DE11DF91FBD01CF018F
:1018E0001124089597FB092E05260ED057FD04D02C
:1018F00014D00AD0001C38F45095409530952195AD
:101900003F4F4F4F5F4F0895F6F790958095709534
:1019100061957F4F8F4F9F4F0895A1E21A2EAA1B0A
:10192000BB1BFD010DC0AA1FBB1FEE1FFF1FA2178F
:10193000B307E407F50720F0A21BB30BE40BF50B8C
:10194000661F771F881F991F1A9469F76095709515
:10195000809590959B01AC01BD01CF010895F8944D
:02196000FFCFB7
:101962000000000000000000000102020303030364
:10197200040404040404040405050505050505051D
:1019820005050505050505050606060606060606FD
:1019920006060606060606060606060606060606E5
:1019A20006060606060606060707070707070707CD
:1019B20007070707070707070707070707070707B5
:1019C20007070707070707070707070707070707A5
:1019D2000707070707070707070707070707070795
:1019E200070707070707070708080808080808087D
:1019F2000808080808080808080808080808080865
:101A02000808080808080808080808080808080854
:101A12000808080808080808080808080808080844
:101A22000808080808080808080808080808080834
:101A32000808080808080808080808080808080824
:101A42000808080808080808080808080808080814
:101A52000808080808080808080808080808080804
:0C1A620008080808080808080100000037
:00000001FF
